:101B6B0020202020343034594554464F554E445391
:011B7B000069
:10143000607A001400770012005D005B003A006BD8
:10144000006F0052007F007B21C000C0200120C13E
:101450002B0F2AC914C821622727022421C522C5BF
:1014600002C622C323C3042123C722C708C8080811
:101470001CF8042016320000200006A42A8D210347
:101480002A0D21C301C3338303C628091204116244
:10149000210203361316230701C7330711C7229110
:1014A00008092306052217061430083024214100BC
:1014B0001100410013004100120041008E00410064
:0A14C000000041008F004100900081
:050006000000000022D3
:081BEB007F0C7EA9DEFEDFFC89
:011BF30022CF
:0C1BB700AE071FEE600512000680F5224C
:101B3100AD07AC06ED1DAE0470011C4E6005121B15
:041B4100EB80F12222
:100C9400121BC37FC0121ADA9000A17404F09000F2
:100CA400A1E0FFC39410504374012FF582E4340093
:100CB400F583E0FFD3940950139000A1E02401F5DB
:100CC40082E43400F583E02412F08017EFD3942FEC
:100CD40040119000A1E02401F582E43400F583E0A2
:100CE40024E2F09000A1E004F080B3E49000A1F0CD
:100CF4009000A1E0FFC394104003020EB9EFC39427
:100D0400044003020E6EEF64016008EF64036003A5
:100D1400020DEC74012FF582E43400F583E0FFC387
:100D240094644003020DE39000A1E0FEEF75F00A25
:100D340084E5F025E02414F582E43400F583A3E08F
:100D440033333354F8FFEEB4010B900012E025E086
:100D540025E0FE80027E00EF4EFF121ADA9000A119
:100D6400E02401F582E43400F583E0FD75F00A84A3
:100D7400E5F025E02414F582E43400F583E0FEA3D5
:100D8400E07805CEC313CE13D8F9FFED75F00A84CD
:100D940025E02414F582E43400F583A3E0333333EF
:100DA40054F84FFF90008EE0FE25E025E04FFF123F
:100DB4001ADA9000A1E02401F582E43400F583E01E
:100DC40075F00A8425E02414F582E43400F583E008
:100DD400FEA3E07805CEC313CE13D8F9020EACE41B
:100DE400FF121ADAE4020EA79000A1E0B4021B90ED
:100DF4000000E025E0FF900090E0FE33333354F828
:100E04004FFF90008FE04FFF80027F00121ADA90AC
:100E140000A1E02401F582E43400F583E025E02418
:100E240014F582E43400F583A3E033333354F8FF3C
:100E3400900013E04FFF900011E0FE25E04FFF12F9
:100E44001ADA9000A1E02401F582E43400F583E08D
:100E540025E02414F582E43400F583E0FEA3E07871
:100E640005CEC313CE13D8F9803E9000A1E024012F
:100E7400F582E43400F583E025E02414F582E434BB
:100E840000F583A3E0FF121ADA9000A1E02401F533
:100E940082E43400F583E025E02414F582E4340090
:100EA400F583E0FF121ADAE4FF121ADA9000A1E0E7
:070EB40004F0020CF4D295DA
:010EBB002214
:0A1BC300D2957F01121BB7C29522D4
:1016F600121BC37F0F121ADA121BC37F40121ADAAB
:10170600121BC37F8A121ADA78017C007D017BFFE7
:101716007A1B796B1213499000017407F0A3744D7C
:10172600F0A37407F0A3744DF0120C947FE87E03C7
:0E173600121B317F109000017421F0A3DFFC24
:011744002282
:101ADA00D293E4FEC293EF139294EFC313FFD2930F
:051AEA000EEEB408EF50
:011AEF0022D4
:1014CA00C100C1074100CD004100C10E4100D50352
:0C14DA004100C2014100C8004100CC00EC
:100EBC00121A93121BCD121BFDC2CD9000C2E07012
:100ECC00047F0180027F00900090EFF01216F6E490
:100EDC00FFFE121AABEF24FF92067F017E00121A5E
:100EEC00AB9000C0EFF07F027E00121AAB9000D8DE
:100EFC00EFF07F037E00121AAB9000D0EFF07F046E
:100F0C007E00121AAB9000C7EFF07F057E00121A1C
:100F1C00AB9000C3EFF07F067E00121AABEF24FFFC
:100F2C009201E433900000F09000D0E0FF9000C7F5
:100F3C00E0FD9000C3E0FBA201E4339000AAF012A4
:100F4C00179320070302102CC2079000BEE0601418
:100F5C007F641219A6C203C2CD9000CC7401F0E4D8
:100F6C009000D6F09000057449F0A37452F0A3746D
:100F7C0021F09000BEE0FDC4540FFED39409400450
:100F8C0074072EFEEE240A900008F0ED540FFED3E9
:100F9C009409400474072EFEEE240A900009F09088
:100FAC0000BEE024F0606324F8604624E860352439
:100FBC00F8605E24BE604624D2601E24C8600F24F4
:100FCC0050705A9000D1E054014401F0804F9000D1
:100FDC00D1E054024402F080449000D1E0544044EB
:100FEC0040F080399000C27401F0E49000D5F0809C
:100FFC002C9000D57401F09000C2F080209000D5A8
:10100C007402F09000C214F080139000D574038029
:10101C00059000D57404F09000C27401F012000E1B
:10102C0030042AC204121AF09000D1E0FF20E0062E
:10103C0020E10330E6147FFA1219A6C203C2CD9048
:10104C0000CC7401F0E49000D6F012000E200203E4
:0E105C00020F4EC202120968120C94020F4ECF
:030003000217459C
:10174500C0E0C0F0C083C082C0D075D000C000C06A
:0D17550001C002C003C004C005C006C007EB
:101762007B017A007991121900D203900092E090E5
:0617720000C5F0121C048A
:10177800D007D006D005D004D003D002D001D000C5
:0B178800D0D0D082D083D0F0D0E0326F
:03000B0002136677
:10136600C0E0C083C082C0D075D000C005C006C032
:01137600076F
:101377009000B7E004F0C394644038E4F0D204A3CB
:10138700E004F09414402CE4F0D202A3E004F094BB
:101397000A4020E4F0D2059000CCE060169000D619
:1013A700E004F09404400CE4F09000CCF09000C10D
:1013B700740EF09000D7E004F0E0B4F00814F09059
:1013C70000CD743FF030B304D200804E30004BC2E2
:1013D700009000D7E0FDC39418503A9000CDE00488
:1013E700F0E0541FF0E0131313541FFF24BCF582E1
:1013F700E43400F583E025E0F0EDD3940F400D745D
:10140700BC2FF582E43400F583E004F09000CDE0D2
:0A141700B41F02D2079000D7E4F0E2
:0F142100D007D006D005D0D0D082D083D0E03213
:100968009000C1E0B40F004003020C9390097BF89B
:100978002828730209A80209D7020A09020A3B02B9
:100988000A74020AA6020AD8020B0A020B39020BE1
:1009980067020BA8020BD8020C08020C4A020C9042
:1009A8009000057453F0A37445F0A37454F0A37435
:1009B80021F0A37459F0A37445F0A37441F0A37413
:1009C80052F0A37402F0E4A3F09000C4020C369035
:1009D80000057453F0A37445F0A37454F0A3742174
:1009E800F0A3744DF0A37454F0A37448F090000E73
:1009F8007421F090000DF090000CF09000CF020CE4
:100A0800369000057453F0A37445F0A37454F0A312
:100A18007421F0A37444F0A37441F0A37459F090C6
:100A2800000E7421F090000DF090000CF09000CAB8
:100A3800020C369000057453F0A37445F0A3745467
:100A4800F0A37421F0A37457F0A37445F0A3F0A3A6
:100A5800744BF090000E7421F090000DF09000D3CC
:100A6800E0FE240A90000FF0A3EEF0229000057437
:100A780053F0A37445F0A37454F0A37421F0A37445
:100A880048F0A3744FF0A37455F0A37452F090008B
:100A98000E7421F090000DF09000CB020C369000FF
:100AA800057453F0A37445F0A37454F0A37421F0B3
:100AB800A3744DF0A37449F0A3744EF090000E7423
:100AC80021F090000DF090000CF09000CE020C3652
:100AD8009000057453F0A37445F0A37454F0A37404
:100AE80021F0A37453F0A37445F0A37443F090006D
:100AF8000E7421F090000DF090000CF09000C902E7
:100B08000C369000057453F0A37445F0A37454F0A8
:100B1800A37421F0A3744FF0A314F0A37421F0A3DD
:100B28007448F0A37452F0A37421F09000C0020C32
:100B3800369000057453F0A37445F0A37454F0A3E1
:100B48007421F0A3744FF0A37446F0A3F0A3744883
:100B5800F0A37452F0A37421F09000D8020C3690E0
:100B680000057453F0A37445F0A37454F0A37421E2
:100B7800F0A37450F0A314F0A37453F0A37421F0FD
:100B880030060AA37455F0A37450020C7890000D37
:100B98007444F0A3744FF0A37457F0A3744EF0227A
:100BA8009000057441F0A3744CF0A304F0A37421E1
:100BB800F0A37448F0A3744FF0A37455F0A37452D3
:100BC800F090000E7421F090000DF09000D0805E3F
:100BD8009000057441F0A3744CF0A304F0A37421B1
:100BE800F0A3744DF0A37449F0A3744EF090000E76
:100BF8007421F090000DF090000CF09000C7802E4A
:100C08009000057441F0A3744CF0A304F0A3742180
:100C1800F0A37453F0A37445F0A37443F090000E4E
:100C28007421F090000DF090000CF09000C3E0FFEC
:100C380075F00A8490000FF0EF75F00A84A3E5F0D0
:100C4800F0229000057441F0A3744CF0A304F0A3C3
:100C58007421F0A37453F0A37457F090000C74211E
:100C6800F090000BF090000D744F30010FF0A314BA
:100C7800F09000107421F090000FF022F0A3744659
:0C0C8800F0A3F0A37421F02212106A22E5
:10000E009000C1E060197B017A0079A11217DF9090
:10001E0000A5E09000CEF09000A6E09000C9F09010
:10002E0000C1E0B40F004003020967900040F828B9
:10003E00287302006D0200EC02016C0201ED020257
:10004E006D0202EB02040302057A02060A0206940E
:10005E000206C002074B0207D402085D0208A990EF
:10006E0000D1E0FF30E0069000C17401F0EF30E601
:10007E000D9000C4E004F0D394634002E4F09000CD
:10008E00D1E030E10E9000C4E014F0D3946340034D
:10009E007463F09000C6E0FF30E61A9000BAE004F8
:1000AE00F0C39416400FE4F09000C4E004F0D39433
:1000BE00634002E4F0EF20E1030209679000BAE02A
:1000CE0004F0C394165003020967E4F09000C4E0F4
:1000DE0014F0D3946350030209677463F022900006
:1000EE00D1E0FF30E0069000C17402F0EF30E60E72
:1000FE009000CFE004F0D3940C40037401F0900014
:10010E00D1E030E10E9000CFE014F0C39401500323
:10011E00740CF09000C6E0FF30E61B9000BAE004CD
:10012E00F0C394164010E4F09000CFE004F0D394A6
:10013E000C40037401F0EF20E1030209679000BA4E
:10014E00E004F0C394165003020967E4F09000CF68
:10015E00E014F094014003020967740CF022900041
:10016E00D1E0FF30E0069000C17403F0EF30E60EF0
:10017E009000CAE004F0D3941F40037401F0900085
:10018E00D1E030E10E9000CAE014F0D3941F40038A
:10019E00741FF09000C6E0FF30E61B9000BAE0043A
:1001AE00F0C394164010E4F09000CAE004F0D3942B
:1001BE001F40037401F0EF20E1030209679000BABB
:1001CE00E004F0C394165003020967E4F09000CAED
:1001DE00E014F0D3941F5003020967741FF02290AD
:1001EE0000D1E0FF30E0069000C17404F0EF30E67D
:1001FE000E9000D3E004F0D3940740037401F09006
:10020E0000D1E030E10E9000D3E014F0C394015021
:10021E00037407F09000C6E0FF30E61B9000BAE0D2
:10022E0004F0C394164010E4F09000D3E004F0D331
:10023E00940740037401F0EF20E103020967900078
:10024E00BAE004F0C394165003020967E4F090007C
:10025E00D3E014F0940140030209677407F0229072
:10026E0000D1E0FF30E0069000C17405F0EF30E6FB
:10027E000D9000CBE004F0D394174002E4F0900010
:10028E00D1E030E10E9000CBE014F0D39417400390
:10029E007417F09000C6E0FF30E61A9000BAE00442
:1002AE00F0C39416400FE4F09000CBE004F0D3942A
:1002BE00174002E4F0EF20E1030209679000BAE074
:1002CE0004F0C394165003020967E4F09000CBE0EB
:1002DE0014F0D3941750030209670207479000D118
:1002EE00E0FF30E0069000C17406F0EF30E63F907C
:1002FE0000CEE004F0D3943B4002E4F09000C4E062
:10030E00FF9000CFE0FD9000CAE0FB9000D3E0909C
:10031E0000AAF09000CBE09000ABF09000CEE09001
:10032E0000ACF09000C9E09000ADF01216239000E2
:10033E00D1E030E1409000CEE014F0C3943B400396
:10034E00743BF09000C4E0FF9000CFE0FD9000CA37
:10035E00E0FB9000D3E09000AAF09000CBE090007C
:10036E00ABF09000CEE09000ACF09000C9E09000B1
:10037E00ADF01216239000C6E030E64C9000BAE0C5
:10038E0004F0C394164041E4F09000CEE004F0D3A4
:10039E00943B4002E4F09000C4E0FF9000CFE0FDFB
:1003AE009000CAE0FB9000D3E09000AAF09000CB42
:1003BE00E09000ABF09000CEE09000ACF09000C961
:1003CE00E09000ADF01216239000C6E020E103028B
:1003DE0009679000BAE004F0C3941650030209674F
:1003EE00E4F09000CEE014F0943B50030205487404
:1003FE003BF00205489000D1E030E0389000C17427
:10040E0007F09000C4E0FF9000CFE0FD9000CAE03E
:10041E00FB9000D3E09000AAF09000CBE09000ABF0
:10042E00F09000CEE09000ACF09000C9E09000ADEE
:10043E00F01216239000D1E030E63F9000C9E004A0
:10044E00F0D3943B4002E4F09000C4E0FF9000CF64
:10045E00E0FD9000CAE0FB9000D3E09000AAF0907F
:10046E0000CBE09000ABF09000CEE09000ACF090AE
:10047E0000C9E09000ADF01216239000D1E030E1FB
:10048E00409000C9E014F0D3943B4003743BF090CD
:10049E0000C4E0FF9000CFE0FD9000CAE0FB9000AA
:1004AE00D3E09000AAF09000CBE09000ABF090006B
:1004BE00CEE09000ACF09000C9E09000ADF01216C6
:1004CE00239000C6E030E64C9000BAE004F0C394EE
:1004DE00164041E4F09000C9E004F0D3943B400292
:1004EE00E4F09000C4E0FF9000CFE0FD9000CAE081
:1004FE00FB9000D3E09000AAF09000CBE09000AB10
:10050E00F09000CEE09000ACF09000C9E09000AD0D
:10051E00F01216239000C6E020E103020967900056
:10052E00BAE004F0C3941650030209679000C9E0C4
:10053E0014F0D3943B4003743BF09000C4E0FF9062
:10054E0000CFE0FD9000CAE0FB9000D3E09000AA3F
:10055E00F09000CBE09000ABF09000CEE09000ACBD
:10056E00F09000C9E09000ADF00216239000D1E0AB
:10057E0030E0189000C17408F0E4FFFE121B1C90CE
:10058E0000C0E0FD7F017E00121A629000D1E0FFF4
:10059E0030E60D9000C0E004F0D394174002E4F072
:1005AE00EF30E10E9000C0E014F0D39417400374C6
:1005BE0017F09000C6E0FF30E61A9000BAE004F0A3
:1005CE00C39416400FE4F09000C0E004F0D39417EB
:1005DE004002E4F0EF20E1030209679000BAE00464
:1005EE00F0C394165003020967E4F09000C0E014C3
:1005FE00F0D3941750030209670207479000D1E029
:10060E0030E0129000C17409F09000D8E0FD7F0236
:10061E007E00121A629000D1E0FF30E60D9000D8F5
:10062E00E004F0D394174002E4F0EF30E10E9000B6
:10063E00D8E014F0D3941740037417F09000C6E07E
:10064E00FF30E61A9000BAE004F0C39416400FE4AF
:10065E00F09000D8E004F0D394174002E4F0EF20BD
:10066E00E1030209679000BAE004F0C39416500348
:10067E00020967E4F09000D8E014F0D39417500309
:10068E000209670207479000D1E030E0119000C1E7
:10069E00740AF0A206E433FDE4FFFE121A62900023
:1006AE00D1E0FF30E602B206EF20E103020967B2A5
:1006BE0006229000D1E030E0129000C1740BF09051
:1006CE0000D0E0FD7F037E00121A629000D1E0FFA1
:1006DE0030E60D9000D0E004F0D394174002E4F021
:1006EE00EF30E10E9000D0E014F0D3941740037475
:1006FE0017F09000C6E0FF30E61A9000BAE004F062
:10070E00C39416400FE4F09000D0E004F0D3941799
:10071E004002E4F0EF20E1030209679000BAE00422
:10072E00F0C394165003020967E4F09000D0E01471
:10073E00F0D3941750030209677417F0229000D17A
:10074E00E030E0129000C1740CF09000C7E0FD7F25
:10075E00047E00121A629000D1E0FF30E60D900088
:10076E00C7E004F0D3943B4002E4F0EF30E10E908A
:10077E0000C7E014F0C3943B4003743BF09000C6F6
:10078E00E0FF30E61A9000BAE004F0C39416400F72
:10079E00E4F09000C7E004F0D3943B4002E4F0EFA5
:1007AE0020E1030209679000BAE004F0C3941650EA
:1007BE0003020967E4F09000C7E014F0943B500385
:1007CE000209670208599000D1E030E0129000C192
:1007DE00740DF09000C3E0FD7F057E00121A62904A
:1007EE0000D1E0FF30E60D9000C3E004F0D3943B5F
:1007FE004002E4F0EF30E10E9000C3E014F0D39429
:10080E003B4003743BF09000C6E0FF30E61A9000C8
:10081E00BAE004F0C39416400FE4F09000C3E00475
:10082E00F0D3943B4002E4F0EF20E103020967901D
:10083E0000BAE004F0C3941650030209679000C397
:10084E00E014F0D3943B5003020967743BF02290FE
:10085E0000D1E030E02C9000C1740EF0A201E43320
:10086E00FD7F067E00121A629000D0E0FF9000C756
:10087E00E0FD9000C3E0FBA201E4339000AAF01269
:10088E0017939000D1E0FF30E602B201EF30E102A3
:10089E00B201A201E433900000F0229000D1E030CA
:1008AE00E046E49000C1F07B017A0079A11217DFD7
:1008BE009000A1E09000CFF09000A2E09000CAF06E
:1008CE009000A3E09000D3F09000A4E09000CBF055
:1008DE009000A5E09000CEF09000A6E09000C9F048
:1008EE00121BF49000C4EFF09000D1E030E6499076
:1008FE0000D5E004F0E0FFC3940450028015EFB47D
:10090E000407E49000C2F08010EFB4050C9000D5FF
:10091E007403F09000C27401F09000C2E070079072
:10092E00009004F08005E4900090F09000D5E090E7
:10093E000001F0C2CD121A1E9000D1E030E11A90E3
:10094E0000D5E014F0D394074004E4F0D2CD90002B
:09095E00D5E0900001F0121A1E10
:01096700226D
:0519A6009000A6EFF027
:1019AB00E4A3F09000A6E0FFA3E0C39F5016C29201
:1019BB007F96121B0DD2927F96121B0D9000A7E003
:0419CB0004F080DFC5
:0119CF0022F5
:101A1E009000C2E0700F7F01121A7BEFC4131354B3
:101A2E00039000D5F0121BC39000D5E04488FF024E
:021A3E001ADAB2
:10106A00200503021103C205C2AF7B017A0079A1F0
:10107A001214E77B017A0079A112169FD2AF900071
:10108A00A3E0200606900004F08012FF75F00A849F
:10109A0090000BF0EF75F00A84A3E5F0F09000A140
:1010AA00E0FF75F00A8490000EF0EF75F00A84A351
:1010BA00E5F0F0A37420F07B017A0079A11218BD43
:1010CA009000A1E0FF75F00A84900005F0EF75F03A
:1010DA000A84A3E5F0F09000A2E0FF75F00A84907C
:1010EA000007F0EF75F00A84A3E5F0F09000A3E0A2
:1010FA00240A900009F0121A1E7B017A0079A112C3
:10110A0019009000A1E0FF9000D9F09000A2E0FE43
:10111A009000D4F0FD9000A3E09000D2F0EF75F0BB
:10112A000A84900001F0EF75F00A84E5F075F00A80
:10113A00A4FFEE75F00A842FA3F0ED75F00A84A3DC
:10114A00E5F0F090000A7421F09000D2E020061831
:10115A00FF75F00A8490000BF0EF75F00A84A3E59E
:10116A00F0F0A37421F0800A900004F090000D744E
:10117A000AF09000D2E0FF9000BBE06F6013EFF03E
:10118A0090008EE070047F0180027F0090008EEF55
:10119A00F09000D9E0D3940C400D9000137401F044
:1011AA00E4900011F0800AE4900013F0900011041A
:1011BA00F030031C9000C5E0FF9000D4E06F600699
:1011CA00D292C203800A7FC81219A67FC81219A632
:1011DA009000D8E0FFA3E0FEB5070E9000C8E070CB
:1011EA000804F0D2CD9000C2F09000C0E0B5060B22
:0B11FA00C2CDE49000C8F09000C2F0ED
:0112050022C6
:101AF000E5B0F4FD9000C6E0AF056D5D9000D1F05B
:051B00009000C6EFF0AB
:011B050022BD
:071BFD00D2AFD2A8C288227A
:0A1BCD00759D0275BC89E4F5BD2288
:101A7B00E4FDFCEF4488F5BC00000000E5BC30E45D
:071A8B00FBAFBDAD077E00BB
:011A92002231
:101A9300538E7F5389F0438902758A83758C83C281
:081AA3008DD28CD2A9D2AF2232
:041B4500F583E0FF45
:0E1B4900EFC4540F75F00AA4FEEF540F2EFFE8
:011B5700226B
:101B5800EF75F00A84C454F0FEEF75F00A84E5F0DE
:021B68002EFF4E
:011B6A002258
:071C0400E4FD7F0F021AC38B
:0B1793009000A7EFF0A3EDF0A3EBF037
:10179E00A3E04404FD7F0E121AC37D807F0A121A45
:1017AE00C39000A7E0FF121B58AD077F09121AC3A2
:1017BE009000A8E0FF121B58AD077F08121AC390C5
:1017CE0000A9E0FF121B58AD077F07121AC3021CB7
:0117DE000406
:081623009000A8EDF0A3EBF02C
:10162B00E4FE121B58AE07AD067F06121AC39000DC
:10163B00A8E0FF121B58AE07AD067F05121AC39028
:10164B0000A9E0FF121B58AE07AD067F04121AC3A8
:10165B009000AAE0FF121B58AE07AD067F03121ACB
:10166B00C39000ABE0FF121B58AE07AD067F021212
:10167B001AC39000ACE0FF121B58AE07AD067F01FA
:10168B00121AC39000ADE0FF121B58AE07AD07E472
:04169B00FF021AC36D
:0B17DF009000A7EBF0A3EAF0A3E9F0F4
:1017EA007B017A0079AA9000B47406F07D0512187C
:1017FA00739000ACE0543FF0E4FD74AA2DF582E446
:10180A003400121B459000A7E0FBA3E0FAA3E0F91D
:0E181A008D82758300EF1212450DEDB406DCD1
:01182800229D
:081BF4007F06121A40121B4982
:011BFC0022C6
:0B18BD009000A6EBF0A3EAF0A3E9F016
:1018C8007B017A0079A99000B47403F07D051218A1
:1018D80073E4FD74A92DF582E43400121B459000D1
:1018E800A6E0FBA3E0FAA3E0F98D82758300EF126E
:0718F80012450DEDB403DC05
:0118FF0022C6
:0B1900009000A6EBF0A3EAF0A3E9F0D2
:10190B007B017A0079A99000B47403F07D02121860
:10191B0073E4FD74A92DF582E43400121B4590008D
:10192B00A6E0FBA3E0FAA3E0F98D82758300EF122A
:07193B0012450DEDB403DCC1
:011942002282
:0B1943009000E1EBF0A3EAF0A3E9F054
:10194E007B017A0079E49000DE7402F07D111218AA
:10195E00299000E4E0FF121B49EFF09000E1E0FB5C
:0A196E00A3E0FAA3E0F9EF02123340
:071B06007F02121B0DD290BB
:0E1B0D00E4FEEEC39F5007000000000E80F4BF
:011B1B0022A7
:101B7C00D2B7D2907F04121B0DC2B7121B0DC290AC
:011B8C002236
:101B8D00C290C2B77F04121B0DD290D2B7021B0DAB
:0B19D0001219F91219DBAF041219F90B
:1019DB00E4FDD2B77F01121B0830B70D0DEDD39488
:0D19EB00FA40F6121B8D7F0122C2907F0092
:0119F80022CC
:0A1BD700C290C2B7121B06C2902292
:0A1BE100C290D2B7121B06C2902278
:0219F900AD0738
:1019FB00C290E4FBED5480C4131313540124FF92E3
:101A0B00B7ED25E0FD121B06C290121B0D0BEBB4BC
:021A1B0008E2DF
:011A1D0022A6
:02197800AD07B9
:10197A00E4FCFBC2907F02121B0DD290EC25E0FC26
:10198A0030B7010C7F01121B0D0BEBB408E5ED70AB
:0B199A0005121BE18003121BD7AF04F5
:0119A500221F
:101AC300AC05AA07121B7C7FD01219F91219DBAFE0
:071AD300021219D0021B8D65
:021A4000AC07F1
:101A4200121B7C7FD01219D0121B7C7FD11219F984
:0F1A52001219DBE4FF121978AD07121B8DAF05D7
:011A61002262
:0B1829009000DAEBF0A3EAF0A3E9F076
:101834009000E0EDF0E49000DFF09000DEE0FFA324
:10184400E0C39F5029A3E0FF04F0121A409000DA8D
:10185400E0FBA3E0FAA3E0F9EF1212339000DBE41B
:0E18640075F0011212679000DFE004F080CCF6
:011872002253
:0B1873009000B0EBF0A3EAF0A3E9F056
:10187E009000B6EDF0E49000B5F09000B4E0FFA358
:10188E00E0C39F5029A3E0FF14F0121A409000B05D
:10189E00E0FBA3E0FAA3E0F9EF1212339000B1E4FB
:0E18AE0075F0011212679000B5E004F080CCD6
:0118BC002209
:041C0B007F50DFFE29
:011C0F0022B2
:0C1B9D007F017ED87D23DDFEDEFCDFFA38
:011BA9002219
:0B14E7009000A6EBF0A3EAF0A3E9F0F0
:1014F200E4A3F0C290121B9DD290121C0B7F5030BD
:101502009006AE071FEE70F7EF7005D2907F0122B2
:101512007FFA209006AE071FEE70F7EF7005D290AB
:101522007F02227FFA309006AE071FEE70F7EF704F
:1015320005D2907F0322E4FEE4FD7F96209006AC64
:10154200071FEC70F7EF7005D2907F0422E4FF30A2
:1015520090040FEF70F99000A9E0FC25E0F0EFD3C2
:10156200941E4003E004F00DEDB408CE9000A9E013
:10157200FD9000A6E0FBA3E0FAA3E0F98E8275835A
:1015820000ED1212450EEEB405AE121C0B121C0B2E
:04159200D2907F0074
:011596002232
:0B169F009000A6EBF0A3EAF0A3E9F036
:1016AA00E4A3F0A3F0FF9000A6E0FBA3E0FAA3E016
:1016BA00F98F82758300121206FD9000AAE02DF0C0
:1016CA009000A9E03400F00FEFB404DA9000A6E02D
:1016DA00FBA3E0FAA3E0F9900004121206FF9000BF
:0B16EA00A9A3E06F60037F01227F00D6
:0116F50022D2
:0D1BAA00E4F5C7F5C5F5C675C380F5C42286
:101AAB0075C78275C5018FC4EEF5C375C65A75C669
:071ABB00A500AFC2121BAA37
:011AC2002201
:101A620075C78275C5028FC4EEF5C3AF058FC27507
:091A7200C65A75C6A500021BAAA4
:101B1C0075C78275C5038FC4EEF5C375C65A75C6F5
:051B2C00A500021BAA48
:030000000215974F
:0C159700787FE4F6D8FD7581200215DE97
:10120600BB010CE58229F582E5833AF583E022509D
:1012160006E92582F8E622BBFE06E92582F8E222E7
:0D122600E58229F582E5833AF583E4932201
:10123300BB010689828A83F0225002F722BBFE019A
:02124300F32294
:10124500F8BB010DE58229F582E5833AF583E8F0DF
:10125500225006E92582C8F622BBFE05E92582C88B
:02126500F22273
:10126700C5F0F8A3E028F0C5F0F8E5821582700212
:061277001583E038F022AF
:10127D00E709F60870FA8046E709F20870FA803E31
:10128D0088828C83E709F0A370FA807EE309F60863
:10129D0070FA8076E309F20870FA806E88828C838A
:1012AD00E309F0A370FA806289828A83E0A3F608CD
:1012BD0070FA805689828A83E0A3F20870FA804A18
:1012CD0080D280FA80C680D4806580F28031801013
:1012DD0080A680EA809A80A880DA80E280CA803178
:1012ED0089828A83ECFAE493A3C8C582C8CCC583EE
:1012FD00CCF0A3C8C582C8CCC583CC70E9800D895C
:10130D00828A83E493A3F60870F9ECFAA9F0EDFB59
:10131D002289828A83ECFAE0A3C8C582C8CCC58332
:10132D00CCF0A3C8C582C8CCC583CC70EA80DD895A
:10133D00828A83E493A3F20870F980CE88F0ED24BD
:10134D0002B4040050C4F582EB2402B4040050BA78
:09135D0023234582239012CD7375
:1015A300020EBCE493A3F8E493A34003F68001F294
:1015B30008DFF48029E493A3F85407240CC8C33349
:1015C300C4540F4420C8834004F456800146F6DF18
:1015D300E4800B0102040810204080901430E47E64
:1015E300019360BCA3FF543F30E509541FFEE4930D
:1015F300A360010ECF54C025E060A840B8E493A3D4
:10160300FAE493A3F8E493A3C8C582C8CAC583CAFE
:10161300F0A3C8C582C8CAC583CADFE9DEE780BEB6
:0114E6000005
:00000001FF
